:100000000C942A000C9434000C9434000C943400AA
:100010000C9434000C9434000C9434000C94340090
:100020000C9434000C9434000C9434000C94340080
:100030000C9434000C9434000C9434000C94340070
:100040000C9434000C9434000C9434000C94340060
:100050000C94340011241FBECFE5D8E0DEBFCDBF25
:100060000E9464000C9487000C94000089E683BF12
:100070000895413069F4E82FF0E0218181E090E0BB
:1000800002C0880F991F6A95E2F7822B8183089539
:10009000E82FF0E0218181E090E002C0880F991FF5
:1000A0006A95E2F78095822381830895E82FF0E036
:1000B000828121E030E002C0220F331F6A95E2F70F
:1000C000209528232283089541E063E086E30E947F
:1000D000390063E086E30E9456000E94360080E00B
:1000E00008C08CBFE7E8F3E13197F1F700C00000EA
:1000F0008F5F8F3FB1F708C08CBFE7E8F3E131971E
:10010000F1F700C0000081508111F6CFE8CFF894DC
:02011000FFCF1F
:00000001FF
